S01600004D6F746F72426573747572696E672E737265634A
S11300000C942A000C9434000C9434000C943400A6
S11300100C9434000C9434000C9434000C9434008C
S11300200C9434000C9434000C9434000C9434007C
S11300300C9434000C9434000C9434000C9434006C
S11300400C9434000C9434000C9434000C9434005C
S11300500C94340011241FBECFE5D8E0DEBFCDBF21
S11300600E944D000C9497000C9400008FB5816A97
S11300708FBD8EB581608EBD089585B38C6085BBC0
S113008082B3806382BB0895AA98AB9882B38063DD
S113009082BB089594989598089581B3806381BB39
S11300A084B38C6084BB0E943600C0E0D0E0DBBD2A
S11300B0CABDD9BDC8BD0E943D002FEF89E698E1B5
S11300C0215080409040E1F700C000002596C436DE
S11300D0D10569F70E943D002FEF81EE94E0215095
S11300E080409040E1F700C000000E944A002FEFDA
S11300F089E698E1215080409040E1F700C000007B
S11301000E9444002FEF81EE94E021508040904003
S1130110E1F700C000000E944A002FEF89E698E151
S1130120215080409040E1F700C00000D3CFF89404
S1050130FFCFFB
S9030000FC
